{
  "contractName": "ConvertLib",
  "abi": [
    {
      "constant": true,
      "inputs": [
        {
          "internalType": "uint256",
          "name": "amount",
          "type": "uint256"
        },
        {
          "internalType": "uint256",
          "name": "conversionRate",
          "type": "uint256"
        }
      ],
      "name": "convert",
      "outputs": [
        {
          "internalType": "uint256",
          "name": "convertedAmount",
          "type": "uint256"
        }
      ],
      "payable": false,
      "stateMutability": "pure",
      "type": "function",
      "signature": "0x96e4ee3d"
    }
  ],
  "bytecode": "0x60e0610025600b82828239805160001a60731461001857fe5b30600052607381538281f3fe73000000000000000000000000000000000000000030146080604052600436106050576000357c01000000000000000000000000000000000000000000000000000000009004806396e4ee3d146055575b600080fd5b608860048036036040811015606957600080fd5b810190808035906020019092919080359060200190929190505050609e565b6040518082815260200191505060405180910390f35b600081830290509291505056fea265627a7a723158200f06062228f933286549013c062c8dab8461b132660078006d991ea879fae9c764736f6c634300050c0032",
  "source": "pragma solidity >=0.4.25 <0.6.0;\n\nlibrary ConvertLib{\n\tfunction convert(uint amount,uint conversionRate) public pure returns (uint convertedAmount)\n\t{\n\t\treturn amount * conversionRate;\n\t}\n}\n",
  "sourcePath": "/Users/kylehz/Documents/workspace/eth/transfer_demo/contracts/ConvertLib.sol",
  "compiler": {
    "name": "solc",
    "version": "0.5.12+commit.7709ece9.Emscripten.clang"
  },
  "schemaVersion": "3.0.0-beta.2",
  "updatedAt": "2019-10-21T03:41:43.044Z",
  "devdoc": {
    "methods": {}
  },
  "userdoc": {
    "methods": {}
  }
}