{
  "contractName": "Payment",
  "abi": [
    {
      "inputs": [],
      "payable": false,
      "stateMutability": "nonpayable",
      "type": "constructor"
    },
    {
      "anonymous": false,
      "inputs": [
        {
          "indexed": false,
          "name": "_transferTo1",
          "type": "address"
        },
        {
          "indexed": false,
          "name": "_transferTo2",
          "type": "address"
        },
        {
          "indexed": false,
          "name": "_transferTo3",
          "type": "address"
        },
        {
          "indexed": false,
          "name": "_transferFrom",
          "type": "address"
        },
        {
          "indexed": false,
          "name": "amount",
          "type": "uint256"
        }
      ],
      "name": "TransferFund",
      "type": "event"
    },
    {
      "constant": false,
      "inputs": [
        {
          "name": "_transferTo1",
          "type": "address"
        },
        {
          "name": "_transferTo2",
          "type": "address"
        },
        {
          "name": "_transferTo3",
          "type": "address"
        }
      ],
      "name": "transferFund",
      "outputs": [
        {
          "name": "",
          "type": "bool"
        }
      ],
      "payable": true,
      "stateMutability": "payable",
      "type": "function"
    },
    {
      "constant": false,
      "inputs": [],
      "name": "getBalanceOfCurrentAccount",
      "outputs": [
        {
          "name": "",
          "type": "uint256"
        }
      ],
      "payable": true,
      "stateMutability": "payable",
      "type": "function"
    }
  ],
  "bytecode": "0x608060405234801561001057600080fd5b50336000806101000a81548173ffffffffffffffffffffffffffffffffffffffff021916908373ffffffffffffffffffffffffffffffffffffffff160217905550610532806100606000396000f30060806040526004361061004c576000357c0100000000000000000000000000000000000000000000000000000000900463ffffffff168063b6e7c63e14610051578063eba1877b146100df575b600080fd5b6100c5600480360381019080803573ffffffffffffffffffffffffffffffffffffffff169060200190929190803573ffffffffffffffffffffffffffffffffffffffff169060200190929190803573ffffffffffffffffffffffffffffffffffffffff1690602001909291905050506100fd565b604051808215151515815260200191505060405180910390f35b6100e76104c6565b6040518082815260200191505060405180910390f35b600083600160006101000a81548173ffffffffffffffffffffffffffffffffffffffff021916908373ffffffffffffffffffffffffffffffffffffffff16021790555082600260006101000a81548173ffffffffffffffffffffffffffffffffffffffff021916908373ffffffffffffffffffffffffffffffffffffffff16021790555081600360006101000a81548173ffffffffffffffffffffffffffffffffffffffff021916908373ffffffffffffffffffffffffffffffffffffffff160217905550600160009054906101000a900473ffffffffffffffffffffffffffffffffffffffff1673ffffffffffffffffffffffffffffffffffffffff166108fc60033481151561020a57fe5b049081150290604051600060405180830381858888f19350505050158015610236573d6000803e3d6000fd5b50600260009054906101000a900473ffffffffffffffffffffffffffffffffffffffff1673ffffffffffffffffffffffffffffffffffffffff166108fc60033481151561027f57fe5b049081150290604051600060405180830381858888f193505050501580156102ab573d6000803e3d6000fd5b50600360009054906101000a900473ffffffffffffffffffffffffffffffffffffffff1673ffffffffffffffffffffffffffffffffffffffff166108fc6003348115156102f457fe5b049081150290604051600060405180830381858888f19350505050158015610320573d6000803e3d6000fd5b507f6ab65ca404c3c592c233090339d563cd5868ebabdc4fbfbe624ca897df568935600160009054906101000a900473ffffffffffffffffffffffffffffffffffffffff16600260009054906101000a900473ffffffffffffffffffffffffffffffffffffffff16600360009054906101000a900473ffffffffffffffffffffffffffffffffffffffff166000809054906101000a900473ffffffffffffffffffffffffffffffffffffffff166003348115156103d957fe5b04604051808673ffffffffffffffffffffffffffffffffffffffff1673ffffffffffffffffffffffffffffffffffffffff1681526020018573ffffffffffffffffffffffffffffffffffffffff1673ffffffffffffffffffffffffffffffffffffffff1681526020018473ffffffffffffffffffffffffffffffffffffffff1673ffffffffffffffffffffffffffffffffffffffff1681526020018373ffffffffffffffffffffffffffffffffffffffff1673ffffffffffffffffffffffffffffffffffffffff1681526020018281526020019550505050505060405180910390a1600190509392505050565b60008060009054906101000a900473ffffffffffffffffffffffffffffffffffffffff1673ffffffffffffffffffffffffffffffffffffffff16319050905600a165627a7a723058208438430f175976a1839ef4e034f90c8cb8d23aa927fea0f6dfdbe71315d96ab70029",
  "source": "pragma solidity ^0.4.17;\n\ncontract Payment {\n  address transferFrom;\n  address transferTo1;\n  address transferTo2;\n  address transferTo3;\n\n  constructor() public {\n    transferFrom = msg.sender;\n  }\n\n  event TransferFund(address _transferTo1, address _transferTo2, address _transferTo3, address _transferFrom, uint amount);\n\n  function transferFund( address _transferTo1, address _transferTo2, address _transferTo3 ) public payable returns (bool){\n      transferTo1 = _transferTo1;\n      transferTo2 = _transferTo2;\n      transferTo3 = _transferTo3;\n\n      transferTo1.transfer(msg.value/3);\n      transferTo2.transfer(msg.value/3);\n      transferTo3.transfer(msg.value/3);\n\n      emit TransferFund(transferTo1, transferTo2, transferTo3, transferFrom, msg.value/3);\n\n      return true;\n  }\n\n  function getBalanceOfCurrentAccount() public payable returns (uint) {\n    return transferFrom.balance;\n  }\n\n}\n",
  "sourcePath": "/home/epim/workspace/ethdapp/contracts/Payment.sol",
  "compiler": {
    "name": "solc",
    "version": "0.4.25+commit.59dbf8f1.Emscripten.clang"
  },
  "schemaVersion": "3.0.16",
  "updatedAt": "2019-10-28T07:36:34.484Z",
  "devdoc": {
    "methods": {}
  },
  "userdoc": {
    "methods": {}
  }
}